{
  "_format": "hh-sol-artifact-1",
  "contractName": "Boss",
  "sourceName": "contracts/Boss.sol",
  "abi": [
    {
      "anonymous": false,
      "inputs": [
        {
          "indexed": true,
          "internalType": "address",
          "name": "",
          "type": "address"
        },
        {
          "indexed": true,
          "internalType": "string",
          "name": "",
          "type": "string"
        }
      ],
      "name": "passwordSaved",
      "type": "event"
    },
    {
      "stateMutability": "payable",
      "type": "fallback"
    },
    {
      "inputs": [
        {
          "internalType": "string",
          "name": "key",
          "type": "string"
        }
      ],
      "name": "getPassword",
      "outputs": [
        {
          "internalType": "string",
          "name": "",
          "type": "string"
        }
      ],
      "stateMutability": "view",
      "type": "function"
    },
    {
      "inputs": [
        {
          "internalType": "address",
          "name": "",
          "type": "address"
        },
        {
          "internalType": "string",
          "name": "",
          "type": "string"
        }
      ],
      "name": "passwordLocker",
      "outputs": [
        {
          "internalType": "string",
          "name": "",
          "type": "string"
        }
      ],
      "stateMutability": "view",
      "type": "function"
    },
    {
      "inputs": [
        {
          "internalType": "string",
          "name": "key",
          "type": "string"
        },
        {
          "internalType": "string",
          "name": "password",
          "type": "string"
        }
      ],
      "name": "storePasswords",
      "outputs": [],
      "stateMutability": "nonpayable",
      "type": "function"
    },
    {
      "stateMutability": "payable",
      "type": "receive"
    }
  ],
  "bytecode": "0x608060405234801561001057600080fd5b5061086b806100206000396000f3fe6080604052600436106100385760003560e01c806301b8c31c146100415780636180617b1461007e578063b0f035b7146100a75761003f565b3661003f57005b005b34801561004d57600080fd5b506100686004803603810190610063919061055c565b6100e4565b604051610075919061062d565b60405180910390f35b34801561008a57600080fd5b506100a560048036038101906100a0919061064f565b6101d0565b005b3480156100b357600080fd5b506100ce60048036038101906100c99190610725565b61029c565b6040516100db919061062d565b60405180910390f35b60606000803373ffffffffffffffffffffffffffffffffffffffff1673ffffffffffffffffffffffffffffffffffffffff1681526020019081526020016000208260405161013291906107bd565b9081526020016040518091039020805461014b90610803565b80601f016020809104026020016040519081016040528092919081815260200182805461017790610803565b80156101c45780601f10610199576101008083540402835291602001916101c4565b820191906000526020600020905b8154815290600101906020018083116101a757829003601f168201915b50505050509050919050565b806000803373ffffffffffffffffffffffffffffffffffffffff1673ffffffffffffffffffffffffffffffffffffffff1681526020019081526020016000208360405161021d91906107bd565b9081526020016040518091039020908051906020019061023e92919061035f565b508160405161024d91906107bd565b60405180910390203373ffffffffffffffffffffffffffffffffffffffff167f19d0e7424a42ae8bc1c45f2b38714f5ce6b6882256c09ece907ecc04cd8ff1c660405160405180910390a35050565b6000602052816000526040600020818051602081018201805184825260208301602085012081835280955050505050506000915091505080546102de90610803565b80601f016020809104026020016040519081016040528092919081815260200182805461030a90610803565b80156103575780601f1061032c57610100808354040283529160200191610357565b820191906000526020600020905b81548152906001019060200180831161033a57829003601f168201915b505050505081565b82805461036b90610803565b90600052602060002090601f01602090048101928261038d57600085556103d4565b82601f106103a657805160ff19168380011785556103d4565b828001600101855582156103d4579182015b828111156103d35782518255916020019190600101906103b8565b5b5090506103e191906103e5565b5090565b5b808211156103fe5760008160009055506001016103e6565b5090565b6000604051905090565b600080fd5b600080fd5b600080fd5b600080fd5b6000601f19601f8301169050919050565b7f4e487b7100000000000000000000000000000000000000000000000000000000600052604160045260246000fd5b61046982610420565b810181811067ffffffffffffffff8211171561048857610487610431565b5b80604052505050565b600061049b610402565b90506104a78282610460565b919050565b600067ffffffffffffffff8211156104c7576104c6610431565b5b6104d082610420565b9050602081019050919050565b82818337600083830152505050565b60006104ff6104fa846104ac565b610491565b90508281526020810184848401111561051b5761051a61041b565b5b6105268482856104dd565b509392505050565b600082601f83011261054357610542610416565b5b81356105538482602086016104ec565b91505092915050565b6000602082840312156105725761057161040c565b5b600082013567ffffffffffffffff8111156105905761058f610411565b5b61059c8482850161052e565b91505092915050565b600081519050919050565b600082825260208201905092915050565b60005b838110156105df5780820151818401526020810190506105c4565b838111156105ee576000848401525b50505050565b60006105ff826105a5565b61060981856105b0565b93506106198185602086016105c1565b61062281610420565b840191505092915050565b6000602082019050818103600083015261064781846105f4565b905092915050565b600080604083850312156106665761066561040c565b5b600083013567ffffffffffffffff81111561068457610683610411565b5b6106908582860161052e565b925050602083013567ffffffffffffffff8111156106b1576106b0610411565b5b6106bd8582860161052e565b9150509250929050565b600073ffffffffffffffffffffffffffffffffffffffff82169050919050565b60006106f2826106c7565b9050919050565b610702816106e7565b811461070d57600080fd5b50565b60008135905061071f816106f9565b92915050565b6000806040838503121561073c5761073b61040c565b5b600061074a85828601610710565b925050602083013567ffffffffffffffff81111561076b5761076a610411565b5b6107778582860161052e565b9150509250929050565b600081905092915050565b6000610797826105a5565b6107a18185610781565b93506107b18185602086016105c1565b80840191505092915050565b60006107c9828461078c565b915081905092915050565b7f4e487b7100000000000000000000000000000000000000000000000000000000600052602260045260246000fd5b6000600282049050600182168061081b57607f821691505b6020821081141561082f5761082e6107d4565b5b5091905056fea2646970667358221220475436c519f87df6344e2a58e864d135de202ba3f87025f433c21c6801b5188264736f6c63430008090033",
  "linkReferences": {},
  "deployedLinkReferences": {}
}